{
  "address": "0xe7f1725E7734CE288F8367e1Bb143E90bb3F0512",
  "abi": [
    {
      "inputs": [
        {
          "internalType": "address",
          "name": "chainLinkPriceFeed",
          "type": "address"
        }
      ],
      "stateMutability": "nonpayable",
      "type": "constructor"
    },
    {
      "inputs": [],
      "name": "MINIMUM_USD",
      "outputs": [
        {
          "internalType": "uint256",
          "name": "",
          "type": "uint256"
        }
      ],
      "stateMutability": "view",
      "type": "function"
    },
    {
      "inputs": [
        {
          "internalType": "address",
          "name": "",
          "type": "address"
        }
      ],
      "name": "addressToAmountFunded",
      "outputs": [
        {
          "internalType": "uint256",
          "name": "",
          "type": "uint256"
        }
      ],
      "stateMutability": "view",
      "type": "function"
    },
    {
      "inputs": [],
      "name": "fund",
      "outputs": [],
      "stateMutability": "payable",
      "type": "function"
    },
    {
      "inputs": [
        {
          "internalType": "uint256",
          "name": "",
          "type": "uint256"
        }
      ],
      "name": "funders",
      "outputs": [
        {
          "internalType": "address",
          "name": "",
          "type": "address"
        }
      ],
      "stateMutability": "view",
      "type": "function"
    },
    {
      "inputs": [],
      "name": "owner",
      "outputs": [
        {
          "internalType": "address",
          "name": "",
          "type": "address"
        }
      ],
      "stateMutability": "view",
      "type": "function"
    },
    {
      "inputs": [],
      "name": "withdraw",
      "outputs": [],
      "stateMutability": "nonpayable",
      "type": "function"
    }
  ],
  "transactionHash": "0x3c2b6c2b3341922261b6a99a1661f2139cf83b10511dda2e5f1e0957e1f4db56",
  "args": [
    "0x5FbDB2315678afecb367f032d93F642f64180aa3"
  ],
  "numDeployments": 1,
  "solcInputHash": "5f2a71a23126e617c3570a9d42cb1300",
  "bytecode": "0x608060405234801561001057600080fd5b50604051610d67380380610d678339818101604052810190610032919061011c565b33600360006101000a81548173ffffffffffffffffffffffffffffffffffffffff021916908373ffffffffffffffffffffffffffffffffffffffff160217905550806000806101000a81548173ffffffffffffffffffffffffffffffffffffffff021916908373ffffffffffffffffffffffffffffffffffffffff16021790555050610149565b600080fd5b600073ffffffffffffffffffffffffffffffffffffffff82169050919050565b60006100e9826100be565b9050919050565b6100f9816100de565b811461010457600080fd5b50565b600081519050610116816100f0565b92915050565b600060208284031215610132576101316100b9565b5b600061014084828501610107565b91505092915050565b610c0f806101586000396000f3fe6080604052600436106100555760003560e01c80633ccfd60b1461005a5780633e47d6f3146100715780636b69a592146100ae5780638da5cb5b146100d9578063b60d428814610104578063dc0d3dff1461010e575b600080fd5b34801561006657600080fd5b5061006f61014b565b005b34801561007d57600080fd5b506100986004803603810190610093919061069b565b610301565b6040516100a591906106e1565b60405180910390f35b3480156100ba57600080fd5b506100c3610319565b6040516100d091906106e1565b60405180910390f35b3480156100e557600080fd5b506100ee610326565b6040516100fb919061070b565b60405180910390f35b61010c61034c565b005b34801561011a57600080fd5b5061013560048036038101906101309190610752565b610485565b604051610142919061070b565b60405180910390f35b60005b6001805490508110156101f157600060026000600184815481106101755761017461077f565b5b9060005260206000200160009054906101000a900473ffffffffffffffffffffffffffffffffffffffff1673ffffffffffffffffffffffffffffffffffffffff1673ffffffffffffffffffffffffffffffffffffffff1681526020019081526020016000208190555080806101e9906107dd565b91505061014e565b50600067ffffffffffffffff81111561020d5761020c610825565b5b60405190808252806020026020018201604052801561023b5781602001602082028036833780820191505090505b5060019080519060200190610251929190610591565b5060003373ffffffffffffffffffffffffffffffffffffffff164760405161027890610885565b60006040518083038185875af1925050503d80600081146102b5576040519150601f19603f3d011682016040523d82523d6000602084013e6102ba565b606091505b50509050806102fe576040517f08c379a00000000000000000000000000000000000000000000000000000000081526004016102f5906108f7565b60405180910390fd5b50565b60026020528060005260406000206000915090505481565b6802b5e3af16b188000081565b600360009054906101000a900473ffffffffffffffffffffffffffffffffffffffff1681565b6802b5e3af16b188000061038960008054906101000a900473ffffffffffffffffffffffffffffffffffffffff16346104c490919063ffffffff16565b10156103ca576040517f08c379a00000000000000000000000000000000000000000000000000000000081526004016103c190610963565b60405180910390fd5b6001339080600181540180825580915050600190039060005260206000200160009091909190916101000a81548173ffffffffffffffffffffffffffffffffffffffff021916908373ffffffffffffffffffffffffffffffffffffffff16021790555034600260003373ffffffffffffffffffffffffffffffffffffffff1673ffffffffffffffffffffffffffffffffffffffff168152602001908152602001600020600082825461047c9190610983565b92505081905550565b6001818154811061049557600080fd5b906000526020600020016000915054906101000a900473ffffffffffffffffffffffffffffffffffffffff1681565b6000806104d083610500565b90506000670de0b6b3a764000082866104e991906109b7565b6104f39190610a28565b9050809250505092915050565b6000808273ffffffffffffffffffffffffffffffffffffffff1663feaf968c6040518163ffffffff1660e01b815260040160a060405180830381865afa15801561054e573d6000803e3d6000fd5b505050506040513d601f19601f820116820180604052508101906105729190610ae6565b5050509150506402540be400816105899190610b61565b915050919050565b82805482825590600052602060002090810192821561060a579160200282015b828111156106095782518260006101000a81548173ffffffffffffffffffffffffffffffffffffffff021916908373ffffffffffffffffffffffffffffffffffffffff160217905550916020019190600101906105b1565b5b509050610617919061061b565b5090565b5b8082111561063457600081600090555060010161061c565b5090565b600080fd5b600073ffffffffffffffffffffffffffffffffffffffff82169050919050565b60006106688261063d565b9050919050565b6106788161065d565b811461068357600080fd5b50565b6000813590506106958161066f565b92915050565b6000602082840312156106b1576106b0610638565b5b60006106bf84828501610686565b91505092915050565b6000819050919050565b6106db816106c8565b82525050565b60006020820190506106f660008301846106d2565b92915050565b6107058161065d565b82525050565b600060208201905061072060008301846106fc565b92915050565b61072f816106c8565b811461073a57600080fd5b50565b60008135905061074c81610726565b92915050565b60006020828403121561076857610767610638565b5b60006107768482850161073d565b91505092915050565b7f4e487b7100000000000000000000000000000000000000000000000000000000600052603260045260246000fd5b7f4e487b7100000000000000000000000000000000000000000000000000000000600052601160045260246000fd5b60006107e8826106c8565b91507fffffffffffffffffffffffffffffffffffffffffffffffffffffffffffffffff820361081a576108196107ae565b5b600182019050919050565b7f4e487b7100000000000000000000000000000000000000000000000000000000600052604160045260246000fd5b600081905092915050565b50565b600061086f600083610854565b915061087a8261085f565b600082019050919050565b600061089082610862565b9150819050919050565b600082825260208201905092915050565b7f5472616e73666572206661696c65642e00000000000000000000000000000000600082015250565b60006108e160108361089a565b91506108ec826108ab565b602082019050919050565b60006020820190508181036000830152610910816108d4565b9050919050565b7f4469646e27742073656e6420656e6f7567682100000000000000000000000000600082015250565b600061094d60138361089a565b915061095882610917565b602082019050919050565b6000602082019050818103600083015261097c81610940565b9050919050565b600061098e826106c8565b9150610999836106c8565b92508282019050808211156109b1576109b06107ae565b5b92915050565b60006109c2826106c8565b91506109cd836106c8565b92508282026109db816106c8565b915082820484148315176109f2576109f16107ae565b5b5092915050565b7f4e487b7100000000000000000000000000000000000000000000000000000000600052601260045260246000fd5b6000610a33826106c8565b9150610a3e836106c8565b925082610a4e57610a4d6109f9565b5b828204905092915050565b600069ffffffffffffffffffff82169050919050565b610a7881610a59565b8114610a8357600080fd5b50565b600081519050610a9581610a6f565b92915050565b6000819050919050565b610aae81610a9b565b8114610ab957600080fd5b50565b600081519050610acb81610aa5565b92915050565b600081519050610ae081610726565b92915050565b600080600080600060a08688031215610b0257610b01610638565b5b6000610b1088828901610a86565b9550506020610b2188828901610abc565b9450506040610b3288828901610ad1565b9350506060610b4388828901610ad1565b9250506080610b5488828901610a86565b9150509295509295909350565b6000610b6c82610a9b565b9150610b7783610a9b565b9250828202610b8581610a9b565b91507f80000000000000000000000000000000000000000000000000000000000000008414600084121615610bbd57610bbc6107ae565b5b8282058414831517610bd257610bd16107ae565b5b509291505056fea264697066735822122053bf7f86df34a98f4a29e0e310841f674890072c3ee785c611631c542f47975164736f6c63430008110033",
  "devdoc": {
    "kind": "dev",
    "methods": {},
    "version": 1
  },
  "userdoc": {
    "kind": "user",
    "methods": {},
    "version": 1
  },
  "storageLayout": {
    "storage": [
      {
        "astId": 60,
        "contract": "contracts/FundMe.sol:FundMe",
        "label": "s_priceFeed",
        "offset": 0,
        "slot": "0",
        "type": "t_contract(AggregatorV3Interface)45"
      },
      {
        "astId": 63,
        "contract": "contracts/FundMe.sol:FundMe",
        "label": "funders",
        "offset": 0,
        "slot": "1",
        "type": "t_array(t_address)dyn_storage"
      },
      {
        "astId": 67,
        "contract": "contracts/FundMe.sol:FundMe",
        "label": "addressToAmountFunded",
        "offset": 0,
        "slot": "2",
        "type": "t_mapping(t_address,t_uint256)"
      },
      {
        "astId": 69,
        "contract": "contracts/FundMe.sol:FundMe",
        "label": "owner",
        "offset": 0,
        "slot": "3",
        "type": "t_address"
      }
    ],
    "types": {
      "t_address": {
        "encoding": "inplace",
        "label": "address",
        "numberOfBytes": "20"
      },
      "t_array(t_address)dyn_storage": {
        "base": "t_address",
        "encoding": "dynamic_array",
        "label": "address[]",
        "numberOfBytes": "32"
      },
      "t_contract(AggregatorV3Interface)45": {
        "encoding": "inplace",
        "label": "contract AggregatorV3Interface",
        "numberOfBytes": "20"
      },
      "t_mapping(t_address,t_uint256)": {
        "encoding": "mapping",
        "key": "t_address",
        "label": "mapping(address => uint256)",
        "numberOfBytes": "32",
        "value": "t_uint256"
      },
      "t_uint256": {
        "encoding": "inplace",
        "label": "uint256",
        "numberOfBytes": "32"
      }
    }
  }
}